:10000000F2EF01F00000000000EF00F0000000003F
:0A0010000000000000000000F3D71C
:0A001C0000000000000000001200C8
:100026001D0E0C6E910E0D6E0D2EFED70C2EFCD7EE
:020036001200B6
:0C003800420E0D6E0D2EFED700001200CF
:100044000001A2BF02D0819A01D0818AA2BD02D050
:10005400819801D08188A2BB02D0819601D081868B
:10006400A2B902D0819401D0818497B102D0818059
:1000740001D081908182D0DF8192A2B702D0819A8F
:1000840001D0818AA2B502D0819801D08188A2B31F
:1000940002D0819601D08186A2B102D0819401D090
:1000A400818497B102D0818001D081908182B4DFB4
:0E00B400819297A102D0B5DF01D0BCDF12000F
:0E00C200ACB202D00000FCD79DC0ADFF120012
:0E00D000000197919DC0A2F0B5DF978112004C
:0A00DE000D0E0D6E0D2EFED7120060
:1000E80000019D6B9F6BA06B100EA16F040EA05DAD
:1000F80029E2F00E836E120E006E000E016E830E62
:100108000024E16E0F0E0120E26EA11D006E00C0FA
:10011800E6FF80DF7FDF0F0E8314006E00C09EF0C5
:1001280000520AE09FC09DF09E5304E09E339E9FBC
:100138009D2BFAD7040EA06FA137A191040E9F271B
:0A014800A02BD4D79DC000F01200D8
:10015200CADF00C098F00F0E8314006E02E0BEDF0B
:08016200FAD798C000F012006A
:10016A0000019B6B98C0E9FF99C0EAFFEECF9AF0B5
:10017A009A51000A0EE09AC09DF09EDF00019B2B67
:10018A009B519825E96E000E9921EA6EEECF9AF0FE
:04019A00EFD7120089
:10019E0010D0800E0001986F1AD0C00E986F17D035
:1001AE00940E986F14D0D40E986F11D0800E986F55
:1001BE000ED000019851010AECE09851020AEDE0D0
:1001CE009851030AEDE09851040AEDE0EFD7990536
:1001DE00006E9851002600C098F0978100C0A2F0E2
:0E01EE002ADF97919AC0A2F026DF97811200B7
:1001FC000900F5CFE6FF0006FBE10106F9E112006C
:10020C00C20E00018B6F000E8C6F9D0E8D6F000E59
:10021C008E6FFF0E876FFF0E886F000E896F000EBA
:10022C008A6FFF0E936FFF0E946F000E956F000E8A
:10023C00966FFF0E8F6FFF0E906F000E916F000E7A
:10024C00926FAC8A900EAB6E948E949C9EAA03D047
:08025C00AECF00F0FBD7120049
:1002640010D0800E0001986F1AD0C00E986F17D06E
:10027400940E986F14D0D40E986F11D0800E986F8E
:100284000ED000019851010AECE09851020AEDE009
:100294009851030AEDE09851040AEDE0EFD799056F
:1002A400006E9851002600C098F000C0A2F0C8DE8D
:1002B40097919C6B9C519A25E96E000E9B21EA6EE6
:1002C400EE520BE09C519A25E96E000E9B21EA6EDA
:0E02D400EECF9DF0FBDE9C2BEDD79781120044
:1002E2000B6A0A6A096A00500402F4CF09F0F3CFDC
:1002F20008F001500502F4CF0BF0F3CF0AF00050E2
:100302000502F3500926F4500A22E86A0B22015032
:100312000402F3500926F4500A22E86A0B2208C0AC
:1003220000F009C001F00AC002F00BC003F0120095
:10033200120E006E000E016E830E0024E16E0F0E8F
:0A0342000120E26EFF0EE66E1200CD
:10034C0093929390939493969398939A819281908D
:10035C00819A81988196819460DE5FDE5EDE818673
:10036C008184818255DE819258DE818251DE8192B8
:10037C0054DE81824DDE819250DE8194818248DE92
:10038C0081924BDE818244DE81928196818A8182C8
:10039C003FDE819242DE819A8184818239DE8192B4
:1003AC008194818235DE819238DE818231DE8192C8
:1003BC00818481822DDE819230DE8194818228DEDF
:1003CC008192818A818881868184818221DE8192D9
:0803DC0024DE000197811200EC
:1003E40000EC04F0938C670EAF6EAC840DDF030E4B
:1003F4000B6E080E0C6E770E0D6E0D2EFED70C2EA6
:10040400FCD70B2EFAD72F0E986F000E996FABDE28
:100414000A0E9D6F54DE0D0E00019D6F50DE00012B
:10042400836B866BCB0E846F8D0E856F816B826BB5
:100434007EDF8ADF010EA26F03DE0C0EA26F00DEE8
:10044400010E986F010E996F150E9A6F000E9B6F37
:1004540007DF7F6A7CDE00C07FF081ACD1D0806B87
:10046400846B856B010EA26FEBDD0C0EA26FE8DDD1
:10047400010E986F010E996F200E9A6F000E9B6FFC
:10048400EFDE7F6A64DE00C07FF00052FBE030D014
:10049400310E7F6E5DD0320E7F6E5AD0330E7F6E7A
:1004A40057D0410E7F6E54D0340E7F6E51D0350E2E
:1004B4007F6E4ED0360E7F6E4BD0420E7F6E48D08C
:1004C400370E7F6E45D0380E7F6E42D0390E7F6E68
:1004D4003FD0430E7F6E3CD02A0E7F6E39D0300E53
:1004E4007F6E36D0230E7F6E33D0440E7F6E30D0B5
:1004F4007F50010ACDE07F50020ACDE07F50030A0D
:10050400CDE07F50040ACDE07F50050ACDE07F5056
:10051400060ACDE07F50070ACDE07F50080ACDE0FF
:100524007F50090ACDE07F500A0ACDE07F500B0AC4
:10053400CDE07F500C0ACDE07F500D0ACDE07F5016
:100544000E0ACDE07F500F0ACDE07F50100ACDE0B7
:100554007F50230A20E0030E835D1DE2640E006ECB
:10056400000E016E84C004F085C005F0B8DE7F5033
:100574000024846F000E0120856F020E986F805155
:10058400010F996F7FC09AF008DE81C09DF097DD5E
:100594000001802B31D07F50230A2EE1010EA26F7F
:1005A4004FDD0C0EA26F4CDD010E986F010E996F9A
:1005B400350E9A6F000E9B6F53DE150E0B6E4B0EAD
:1005C4000C6EBE0E0D6E0D2EFED70C2EFCD70B2E10
:1005D400FAD70000010EA26F33DD0C0EA26F30DDDE
:1005E400010E986F010E996F610E9A6F000E9B6F4A
:1005F40037DE836B7F6A04D0040E805DD8A041D7B8
:100604007F52D8B427D70C0EA26F1ADD010E986F53
:10061400010E996F560E9A6F000E9B6F21DE30D03B
:10062400310E7F6E5DD0320E7F6E5AD0330E7F6EE8
:1006340057D0410E7F6E54D0340E7F6E51D0350E9C
:100644007F6E4ED0360E7F6E4BD0420E7F6E48D0FA
:10065400370E7F6E45D0380E7F6E42D0390E7F6ED6
:100664003FD0430E7F6E3CD02A0E7F6E39D0300EC1
:100674007F6E36D0230E7F6E33D0440E7F6E30D023
:100684007F50010ACDE07F50020ACDE07F50030A7B
:10069400CDE07F50040ACDE07F50050ACDE07F50C5
:1006A400060ACDE07F50070ACDE07F50080ACDE06E
:1006B4007F50090ACDE07F500A0ACDE07F500B0A33
:1006C400CDE07F500C0ACDE07F500D0ACDE07F5085
:1006D4000E0ACDE07F500F0ACDE07F50100ACDE026
:1006E4007F50230A2FE18551821902E18151841937
:1006F40010E1010EA26FA4DC0C0EA26FA1DC010EAE
:10070400986F030E996F750E9A6F000E9B6FA8DD9C
:100714003FD08551821902E18151841912E0010E02
:10072400A26F8EDC0C0EA26F8BDC010E986F030E91
:10073400996F6C0E9A6F000E9B6F92DD816B826BCA
:10074400836B22D07F50230A1FE0030E835D1CE2DB
:10075400640E006E000E016E81C004F082C005F0CC
:10076400BEDD7F500024816F000E0120826F020ED7
:10077400986F8351010F996F2A0E9A6F0EDD81C015
:100784009DF09DDC0001832B040E835DD8A061D60F
:02079400FFD78D
:1008000010EE15F06A0E006E010E016E960EF66E79
:0E081000070EF76E000EF86EFEEC00F0120000
:0B079600456E7465722050696E3A00D9
:0F07A100456E746572204E65772050696E3A0080
:0607B00053746172740035
:1007B600596F7572206E65772050696E2068617377
:1007C600207365742073756363657366756C6C79E5
:0107D6000022
:0B07D700456E7465722050696E3A0098
:0B07E200456E7465722050696E3A008D
:0907ED0057726F6E6750696E00CF
:0A07F600554E4C4F434B494E47004F
:020000040030CA
:0D000100220F0EFF0181FF0FC00FE00F4026
:00000001FF
